:1000000012C017C016C015C014C013C012C011C052
:1000100010C00FC00EC00DC00CC00BC00AC009C07C
:1000200008C007C006C011241FBECFEDCDBF23D02E
:100030003EC0E6CF19BE089580E888B9089588B11A
:1000400090E096958795929582958F7089279F70FD
:1000500089278170089588B190E09695879592954B
:1000600082958F7089279F708927817028B32E7F92
:10007000282B28BB08958FEF87BB81BB19BE83E86F
:1000800080BF81E083BF88EC86BF87E888B988B1EC
:1000900090E096958795929582958F7089279F70AD
:1000A0008927817028B32E7F282B28BBF0CFF894A6
:0200B000FFCF80
:00000001FF
