:1000000012C022C021C020C01FC01EC01DC01CC005
:100010001BC01AC019C018C017C016C015C014C024
:1000200013C012C011C011241FBECFEDCDBF10E010
:10003000A0E6B0E0E2ECF0E002C005900D92A2363E
:10004000B107D9F727D03BC0DBCF19BE089580E8B0
:1000500088B9089588B190E0969587959295829594
:100060008F7089279F7089278170089588B190E0EB
:1000700096958795929582958F7089279F7089278D
:10008000817028B32E7F282B28BB22B32E7F822B92
:1000900082BB08958FEF87BB81BB19BE83E880BF09
:1000A00081E083BF88EC86BF87B38C7F87BB88B332
:1000B0008C7F88BB87E888B9D9DFD8DFFDCFF8947B
:0200C000FFCF70
:0200C200030039
:00000001FF
